{
  "contractName": "UtilCoin",
  "abi": [
    {
      "constant": true,
      "inputs": [],
      "name": "name",
      "outputs": [
        {
          "name": "",
          "type": "string"
        }
      ],
      "payable": false,
      "stateMutability": "view",
      "type": "function"
    },
    {
      "constant": true,
      "inputs": [],
      "name": "totalSupply",
      "outputs": [
        {
          "name": "",
          "type": "uint256"
        }
      ],
      "payable": false,
      "stateMutability": "view",
      "type": "function"
    },
    {
      "constant": false,
      "inputs": [
        {
          "name": "_from",
          "type": "address"
        },
        {
          "name": "_to",
          "type": "address"
        },
        {
          "name": "_value",
          "type": "uint256"
        }
      ],
      "name": "transferFrom",
      "outputs": [
        {
          "name": "success",
          "type": "bool"
        }
      ],
      "payable": false,
      "stateMutability": "nonpayable",
      "type": "function"
    },
    {
      "constant": true,
      "inputs": [
        {
          "name": "_owner",
          "type": "address"
        }
      ],
      "name": "balanceOf",
      "outputs": [
        {
          "name": "balance",
          "type": "uint256"
        }
      ],
      "payable": false,
      "stateMutability": "view",
      "type": "function"
    },
    {
      "constant": false,
      "inputs": [
        {
          "name": "_spender",
          "type": "address"
        },
        {
          "name": "_amount",
          "type": "uint256"
        }
      ],
      "name": "approval",
      "outputs": [
        {
          "name": "success",
          "type": "bool"
        }
      ],
      "payable": false,
      "stateMutability": "nonpayable",
      "type": "function"
    },
    {
      "constant": true,
      "inputs": [],
      "name": "decimal",
      "outputs": [
        {
          "name": "",
          "type": "int256"
        }
      ],
      "payable": false,
      "stateMutability": "view",
      "type": "function"
    },
    {
      "constant": true,
      "inputs": [],
      "name": "owner",
      "outputs": [
        {
          "name": "",
          "type": "address"
        }
      ],
      "payable": false,
      "stateMutability": "view",
      "type": "function"
    },
    {
      "constant": true,
      "inputs": [],
      "name": "symbol",
      "outputs": [
        {
          "name": "",
          "type": "string"
        }
      ],
      "payable": false,
      "stateMutability": "view",
      "type": "function"
    },
    {
      "constant": false,
      "inputs": [
        {
          "name": "_to",
          "type": "address"
        },
        {
          "name": "_value",
          "type": "uint256"
        }
      ],
      "name": "transfer",
      "outputs": [
        {
          "name": "success",
          "type": "bool"
        }
      ],
      "payable": false,
      "stateMutability": "nonpayable",
      "type": "function"
    },
    {
      "constant": true,
      "inputs": [
        {
          "name": "_owner",
          "type": "address"
        },
        {
          "name": "_spender",
          "type": "address"
        }
      ],
      "name": "allowance",
      "outputs": [
        {
          "name": "remaining",
          "type": "uint256"
        }
      ],
      "payable": false,
      "stateMutability": "view",
      "type": "function"
    },
    {
      "inputs": [],
      "payable": false,
      "stateMutability": "nonpayable",
      "type": "constructor"
    },
    {
      "payable": true,
      "stateMutability": "payable",
      "type": "fallback"
    },
    {
      "anonymous": false,
      "inputs": [
        {
          "indexed": true,
          "name": "_from",
          "type": "address"
        },
        {
          "indexed": true,
          "name": "_to",
          "type": "address"
        },
        {
          "indexed": false,
          "name": "_value",
          "type": "uint256"
        }
      ],
      "name": "Transfer",
      "type": "event"
    },
    {
      "anonymous": false,
      "inputs": [
        {
          "indexed": true,
          "name": "_owner",
          "type": "address"
        },
        {
          "indexed": true,
          "name": "_spender",
          "type": "address"
        },
        {
          "indexed": false,
          "name": "_value",
          "type": "uint256"
        }
      ],
      "name": "Approval",
      "type": "event"
    }
  ],
  "bytecode": "0x6060604052341561000f57600080fd5b60018054600160a060020a03338116600160a060020a0319909216919091179182905569d3c21bcecceda1000000600081815592909116825260026020526040909120556106a1806100626000396000f3006060604052600436106100a35763ffffffff7c010000000000000000000000000000000000000000000000000000000060003504166306fdde0381146100c057806318160ddd1461014a57806323b872dd1461016f57806370a08231146101ab57806375247a58146101ca57806376809ce3146101ec5780638da5cb5b146101ff57806395d89b411461022e578063a9059cbb14610241578063dd62ed3e14610263575b600034116100b057600080fd5b6100bd3334601402610288565b50005b34156100cb57600080fd5b6100d361035b565b60405160208082528190810183818151815260200191508051906020019080838360005b8381101561010f5780820151838201526020016100f7565b50505050905090810190601f16801561013c5780820380516001836020036101000a031916815260200191505b509250505060405180910390f35b341561015557600080fd5b61015d610392565b60405190815260200160405180910390f35b341561017a57600080fd5b610197600160a060020a0360043581169060243516604435610398565b604051901515815260200160405180910390f35b34156101b657600080fd5b61015d600160a060020a03600435166104b1565b34156101d557600080fd5b610197600160a060020a03600435166024356104cc565b34156101f757600080fd5b61015d610538565b341561020a57600080fd5b61021261053d565b604051600160a060020a03909116815260200160405180910390f35b341561023957600080fd5b6100d361054c565b341561024c57600080fd5b610197600160a060020a0360043516602435610583565b341561026e57600080fd5b61015d600160a060020a036004358116906024351661064a565b600154600160a060020a0316600090815260026020526040812054829010156102b057600080fd5b600082116102bd57600080fd5b600160a060020a038316600090815260026020526040902054828101116102e357600080fd5b60018054600160a060020a039081166000908152600260205260408082208054879003905586831680835291819020805487019055925490929116907fddf252ad1be2c89b69c2b068fc378daa952ba7f163c4a11628f55a4df523b3ef9085905190815260200160405180910390a350600192915050565b60408051908101604052600c81527f5574696c69747920436f696e0000000000000000000000000000000000000000602082015281565b60005490565b600160a060020a038316600090815260026020526040812054829010156103be57600080fd5b600160a060020a0380851660009081526003602090815260408083203390941683529290522054829010156103f257600080fd5b600082116103ff57600080fd5b600160a060020a0383166000908152600260205260409020548281011161042557600080fd5b600160a060020a0380851660008181526002602081815260408084208054899003905560038252808420338716855282528084208054899003905594881680845291905290839020805486019055917fddf252ad1be2c89b69c2b068fc378daa952ba7f163c4a11628f55a4df523b3ef9085905190815260200160405180910390a35060019392505050565b600160a060020a031660009081526002602052604090205490565b600160a060020a03338116600081815260036020908152604080832094871680845294909152808220859055909291907f8c5be1e5ebec7d5bd14f71427d1e84f3dd0314c0f7b2291e5b200ac8c7c3b9259085905190815260200160405180910390a350600192915050565b601281565b600154600160a060020a031681565b60408051908101604052600381527f55544c0000000000000000000000000000000000000000000000000000000000602082015281565b600160a060020a033316600090815260026020526040812054829010156105a957600080fd5b600082116105b657600080fd5b600160a060020a038316600090815260026020526040902054828101116105dc57600080fd5b600160a060020a033381166000818152600260205260408082208054879003905592861680825290839020805486019055917fddf252ad1be2c89b69c2b068fc378daa952ba7f163c4a11628f55a4df523b3ef9085905190815260200160405180910390a350600192915050565b600160a060020a039182166000908152600360209081526040808320939094168252919091522054905600a165627a7a72305820cf86f6e06638e3db50da95f2758c2e12de75c0232f39c7a9421a9208906da9330029",
  "source": "pragma solidity ^0.4.18;\n\ncontract UtilCoin {\n    string public constant symbol = \"UTL\";\n    string public constant name = \"Utility Coin\";\n    int public constant decimal = 18;\n    uint _totalSupply;\n    \n    // Owner of this contract\n    address public owner;\n    \n    // Balance for each account\n    mapping(address => uint256) balances;\n    \n    // Owner of account approves the transfer of an amount to another account\n    mapping(address => mapping(address => uint256)) allowed;\n    \n    // Constructor\n    function UtilCoin() public {\n        owner = msg.sender;\n        _totalSupply = 1000000 * 10**uint(decimal);\n        balances[owner] = _totalSupply;\n    }\n    \n\n    /**\n     * ERC20Interface Functions \n     */\n    \n    //Get the total Supply\n    function totalSupply() public constant returns (uint) {\n        return _totalSupply;\n    }\n    \n    //Get the account balance according to address\n    function balanceOf(address _owner) public constant returns (uint256 balance) {\n        return balances[_owner];\n    }\n    \n    //Send value amount of tokens to address _to\n    function transfer(address _to, uint256 _value) public returns (bool success) {\n        \n        //Checks\n        require(balances[msg.sender] >= _value);\n        require(_value > 0.000000000000000000);\n        \n        // Overflow check, if we add more to the current balance of '_to'\n        require(balances[_to] + _value > balances[_to]);\n        \n        balances[msg.sender] -= _value;\n        balances[_to] += _value;\n        \n        Transfer(msg.sender, _to, _value);\n        \n        return true;\n    }\n    function internalTransfer(address _to, uint256 _value) private returns (bool success) {\n        require(balances[owner] >= _value);\n        require(_value > 0);\n        require(balances[_to] + _value > balances[_to]);\n       \n        balances[owner] -= _value;\n        balances[_to] += _value;\n\n        Transfer(owner, _to, _value);\n\n        return true;\n    }\n    \n    //Send value from an explicit address to another address _to\n    function transferFrom(address _from, address _to, uint256 _value) public returns (bool success) {\n        \n        //Checks \n        require(balances[_from] >= _value);\n        require(allowed[_from][msg.sender] >= _value);\n        require(_value > 0);\n        \n        //Overflow check\n        require(balances[_to] + _value > balances[_to]);\n        \n        balances[_from] -= _value;\n        allowed[_from][msg.sender] -= _value;\n        balances[_to] += _value;\n        Transfer(_from, _to, _value);\n        \n        return true;\n    }\n    \n    // Allows _spender to withdraw from your account, on your behalf up to an amount allowed\n    function approval(address _spender, uint256 _amount) public returns (bool success) {\n        allowed[msg.sender][_spender] = _amount;\n        Approval(msg.sender, _spender, _amount);\n        \n        return true;\n    }\n    \n    // Returns the amount which _spender is entitled to withdraw from an _owners account\n    function allowance(address _owner, address _spender) public constant returns (uint256 remaining) {\n        return allowed[_owner][_spender];\n    }\n\n    function() payable {\n        require(msg.value > 0);\n\n        internalTransfer(msg.sender, msg.value * 20);\n    }\n\n    event Transfer(address indexed _from, address indexed _to, uint256 _value);\n    event Approval(address indexed _owner, address indexed _spender, uint256 _value);\n}",
  "sourcePath": "/Users/christophercoverdale/Desktop/Projects/solidity/util-coin/contracts/UtilCoin.sol",
  "compiler": {
    "name": "solc",
    "version": "0.4.18+commit.9cf6e910.Emscripten.clang"
  },
  "schemaVersion": "1.0.1",
  "updatedAt": "2018-02-23T20:21:08.124Z"
}